{
    "contractName": "BirdManager",
    "abi": [
        {
            "constant": true,
            "inputs": [
                {
                    "name": "_id",
                    "type": "uint64"
                }
            ],
            "name": "getBirdInfo",
            "outputs": [
                {
                    "name": "genes",
                    "type": "bytes32"
                },
                {
                    "name": "birthTime",
                    "type": "uint64"
                },
                {
                    "name": "owner",
                    "type": "address"
                },
                {
                    "name": "weight",
                    "type": "uint64"
                },
                {
                    "name": "exp",
                    "type": "uint32"
                },
                {
                    "name": "power",
                    "type": "uint32"
                },
                {
                    "name": "speed",
                    "type": "uint32"
                },
                {
                    "name": "level",
                    "type": "uint32"
                },
                {
                    "name": "eatFruitTime",
                    "type": "uint64"
                }
            ],
            "payable": false,
            "stateMutability": "view",
            "type": "function"
        },
        {
            "constant": false,
            "inputs": [],
            "name": "catchBird",
            "outputs": [],
            "payable": true,
            "stateMutability": "payable",
            "type": "function"
        },
        {
            "constant": false,
            "inputs": [],
            "name": "unpause",
            "outputs": [],
            "payable": false,
            "stateMutability": "nonpayable",
            "type": "function"
        },
        {
            "constant": true,
            "inputs": [],
            "name": "totalBirds",
            "outputs": [
                {
                    "name": "",
                    "type": "uint64"
                }
            ],
            "payable": false,
            "stateMutability": "view",
            "type": "function"
        },
        {
            "constant": true,
            "inputs": [],
            "name": "paused",
            "outputs": [
                {
                    "name": "",
                    "type": "bool"
                }
            ],
            "payable": false,
            "stateMutability": "view",
            "type": "function"
        },
        {
            "constant": false,
            "inputs": [],
            "name": "pause",
            "outputs": [],
            "payable": false,
            "stateMutability": "nonpayable",
            "type": "function"
        },
        {
            "constant": false,
            "inputs": [
                {
                    "name": "tokenId",
                    "type": "uint64"
                },
                {
                    "name": "price",
                    "type": "uint256"
                },
                {
                    "name": "fee",
                    "type": "uint256"
                },
                {
                    "name": "sign",
                    "type": "bytes32"
                }
            ],
            "name": "trade",
            "outputs": [],
            "payable": true,
            "stateMutability": "payable",
            "type": "function"
        },
        {
            "constant": false,
            "inputs": [
                {
                    "name": "challengerId",
                    "type": "uint64"
                },
                {
                    "name": "resisterId",
                    "type": "uint64"
                },
                {
                    "name": "sign",
                    "type": "bytes32"
                }
            ],
            "name": "pk",
            "outputs": [],
            "payable": true,
            "stateMutability": "payable",
            "type": "function"
        },
        {
            "constant": false,
            "inputs": [
                {
                    "name": "tokenId",
                    "type": "uint64"
                },
                {
                    "name": "fruitId",
                    "type": "uint8"
                },
                {
                    "name": "sign",
                    "type": "bytes32"
                }
            ],
            "name": "feedFruit",
            "outputs": [],
            "payable": true,
            "stateMutability": "payable",
            "type": "function"
        },
        {
            "inputs": [],
            "payable": false,
            "stateMutability": "nonpayable",
            "type": "constructor"
        },
        {
            "anonymous": false,
            "inputs": [
                {
                    "indexed": false,
                    "name": "buyerAddress",
                    "type": "address"
                },
                {
                    "indexed": false,
                    "name": "BirdId",
                    "type": "uint64"
                },
                {
                    "indexed": false,
                    "name": "amount",
                    "type": "uint256"
                },
                {
                    "indexed": false,
                    "name": "currentTime",
                    "type": "uint64"
                }
            ],
            "name": "create",
            "type": "event"
        },
        {
            "anonymous": false,
            "inputs": [
                {
                    "indexed": false,
                    "name": "buyerAddress",
                    "type": "address"
                },
                {
                    "indexed": false,
                    "name": "sellerAddress",
                    "type": "address"
                },
                {
                    "indexed": false,
                    "name": "BirdId",
                    "type": "uint64"
                },
                {
                    "indexed": false,
                    "name": "price",
                    "type": "uint256"
                },
                {
                    "indexed": false,
                    "name": "fee",
                    "type": "uint256"
                },
                {
                    "indexed": false,
                    "name": "currentTime",
                    "type": "uint64"
                }
            ],
            "name": "Trade",
            "type": "event"
        },
        {
            "anonymous": false,
            "inputs": [
                {
                    "indexed": false,
                    "name": "owner",
                    "type": "address"
                },
                {
                    "indexed": false,
                    "name": "BirdId",
                    "type": "uint64"
                },
                {
                    "indexed": false,
                    "name": "fruitId",
                    "type": "uint8"
                },
                {
                    "indexed": false,
                    "name": "amount",
                    "type": "uint256"
                },
                {
                    "indexed": false,
                    "name": "currentTime",
                    "type": "uint64"
                }
            ],
            "name": "feedFruitEvent",
            "type": "event"
        },
        {
            "anonymous": false,
            "inputs": [
                {
                    "indexed": false,
                    "name": "sender",
                    "type": "address"
                },
                {
                    "indexed": false,
                    "name": "challengerId",
                    "type": "uint64"
                },
                {
                    "indexed": false,
                    "name": "resisterId",
                    "type": "uint64"
                },
                {
                    "indexed": false,
                    "name": "isWin",
                    "type": "bool"
                },
                {
                    "indexed": false,
                    "name": "challengerRewardExp",
                    "type": "uint32"
                },
                {
                    "indexed": false,
                    "name": "resisterRewardExp",
                    "type": "uint32"
                },
                {
                    "indexed": false,
                    "name": "winnerRewardCoin",
                    "type": "uint64"
                },
                {
                    "indexed": false,
                    "name": "attack1",
                    "type": "uint64"
                },
                {
                    "indexed": false,
                    "name": "attack2",
                    "type": "uint64"
                },
                {
                    "indexed": false,
                    "name": "currentTime",
                    "type": "uint64"
                }
            ],
            "name": "PKEvent",
            "type": "event"
        }
    ],
    "bytecode": "6000805460a060020a60e860020a031916905560c0604052600c60808190527f666f72657665725f62697264000000000000000000000000000000000000000060a09081526200005391600191906200007a565b503480156200006157600080fd5b5060008054600160a060020a031916331790556200011f565b828054600181600116156101000203166002900490600052602060002090601f016020900481019282601f10620000bd57805160ff1916838001178555620000ed565b82800160010185558215620000ed579182015b82811115620000ed578251825591602001919060010190620000d0565b50620000fb929150620000ff565b5090565b6200011c91905b80821115620000fb576000815560010162000106565b90565b612120806200012f6000396000f30060806040526004361061007f5763ffffffff60e060020a6000350416632f4cfcd0811461008457806334b984c61461010a5780633f4ba83a1461011457806355d396e0146101295780635c975abb1461015a5780638456cb5914610183578063d7b42d7714610198578063ed7822b6146101b5578063f7c2ac89146101d2575b600080fd5b34801561009057600080fd5b506100a56001604060020a03600435166101ef565b60408051998a526001604060020a0398891660208b0152600160a060020a0390971689880152948716606089015263ffffffff938416608089015291831660a0880152821660c08701521660e085015290911661010083015251908190036101200190f35b610112610334565b005b34801561012057600080fd5b50610112610408565b34801561013557600080fd5b5061013e61043f565b604080516001604060020a039092168252519081900360200190f35b34801561016657600080fd5b5061016f610467565b604080519115158252519081900360200190f35b34801561018f57600080fd5b50610112610477565b6101126001604060020a03600435166024356044356064356104b4565b6101126001604060020a03600435811690602435166044356106fd565b6101126001604060020a036004351660ff6024351660443561095d565b60008060008060008060008060006102056120a0565b60005460a060020a900460ff161561021c57600080fd5b6001604060020a038b16600090815260026020526040902054151561024057600080fd5b505050506001604060020a0396871660009081526002602081815260409283902083516101408101855281548082526001830154808e169483019490945268010000000000000000938490048d1695820186905293820154600160a060020a0381166060830181905260a060020a82048e166080840181905260e060020a90920463ffffffff90811660a0850181905260039095015480821660c086018190526401000000008204831660e0870181905297820490921661010086018190526c01000000000000000000000000909104909f16610120909401849052959e969d909c50909a50919850929650909450925090565b60008054819060a060020a900460ff161561034e57600080fd5b666a94d74f43000034101561036257600080fd5b42915061036e33610b77565b905061037a3382610dba565b60008054604051600160a060020a03909116913480156108fc02929091818181858888f193505050501580156103b4573d6000803e3d6000fd5b50604080513381526001604060020a03808416602083015234828401528416606082015290517ffb5318febaf562df769d3699d5d80a2f7ec277bace5af4b7c79e978eaf969cb69181900360800190a15050565b600054600160a060020a0316331461041f57600080fd5b6000805474ff000000000000000000000000000000000000000019169055565b600054750100000000000000000000000000000000000000000090046001604060020a031681565b60005460a060020a900460ff1681565b600054600160a060020a0316331461048e57600080fd5b6000805474ff0000000000000000000000000000000000000000191660a060020a179055565b60008054819060a060020a900460ff16156104ce57600080fd5b858585600160405180856001604060020a03166001604060020a031660c060020a028152600801848152602001838152602001828054600181600116156101000203166002900480156105585780601f10610536576101008083540402835291820191610558565b820191906000526020600020905b815481529060010190602001808311610544575b505060408051918290039091206001604060020a038d1660009081526002602052919091205490975015159450610593935050505057600080fd5b6001604060020a03861660009081526002602081905260409091200154600160a060020a03163314156105c557600080fd5b600034116105d257600080fd5b8385116105de57600080fd5b34858501146105ec57600080fd5b506001604060020a03851660009081526002602081905260409091200154600160a060020a031661061e813388610e68565b604051600160a060020a0382169086156108fc029087906000818181858888f19350505050158015610654573d6000803e3d6000fd5b5060008054604051600160a060020a039091169186156108fc02918791818181858888f1935050505015801561068e573d6000803e3d6000fd5b5060408051338152600160a060020a03831660208201526001604060020a03808916828401526060820188905260808201879052421660a082015290517f048c2b80fcecb390222adc2bbd7e970fb3f6dfeb5ea1217e188186d40acf91a99181900360c00190a1505050505050565b60008060008060008060008060149054906101000a900460ff1615151561072357600080fd5b8989600160405180846001604060020a03166001604060020a031660c060020a028152600801836001604060020a03166001604060020a031660c060020a028152600801828054600181600116156101000203166002900480156107be5780601f1061079c5761010080835404028352918201916107be565b820191906000526020600020905b8154815290600101906020018083116107aa575b50506040519081900390209a50505089891491506107dd905057600080fd5b6001604060020a038a1660009081526002602081905260409091200154600160a060020a0316331461080e57600080fd5b6001604060020a038916600090815260026020526040902054151561083257600080fd5b6001604060020a03808a166000908152600260208190526040808320820154938e1683529091200154600160a060020a039081169116141561087357600080fd5b600195506108818a8a610eef565b90925090506001604060020a03808216908316106108b1576108a58a8a600161146e565b919650945092506108c9565b600095506108c18a8a600061146e565b919650945092505b604080513381526001604060020a03808d166020830152808c1682840152881515606083015263ffffffff8089166080840152871660a083015280861660c083015280851660e0830152808416610100830152421661012082015290517f6a322bdd4915895fa59338d009bb8e304a2ffc6a53780cdc1a79f4f6cba9e372918190036101400190a150505050505050505050565b60008054819060a060020a900460ff161561097757600080fd5b6000341161098457600080fd5b848434600160405180856001604060020a03166001604060020a031660c060020a0281526008018460ff1660ff1660f860020a02815260010183815260200182805460018160011615610100020316600290048015610a1a5780601f106109f8576101008083540402835291820191610a1a565b820191906000526020600020905b815481529060010190602001808311610a06575b5050604051908190039020965050508585149250610a3a91505057600080fd5b6001604060020a0385166000908152600260205260409020541515610a5e57600080fd5b6001604060020a03851660009081526002602081905260409091200154600160a060020a03163314610a8f57600080fd5b506001604060020a038085166000908152600260205260409020600301544291620151806c01000000000000000000000000909204811683031611610ad357600080fd5b610add85856119d9565b60008054604051600160a060020a03909116913480156108fc02929091818181858888f19350505050158015610b17573d6000803e3d6000fd5b50604080513381526001604060020a03808816602083015260ff8716828401523460608301524216608082015290517f46285915cb2720afc6e06ee1d97006e12bf06af6bff3d13707a0aa708a4fe3439181900360a00190a15050505050565b600080600080610b856120a0565b429150610b9182611a95565b60408051610140810182528281526001604060020a038085166020830152861691810191909152600160a060020a03891660608201526103e86080820152600060a082018190529296509094509060c0820190610bf79086905b1a60f860020a02611b8b565b60ff168152602001610c0a856001610beb565b60ff1681526000602080830182905260409283018290526001604060020a03888116835260028083529284902085518155918501516001830180549587015167ffffffffffffffff19909616918316919091176fffffffffffffffff0000000000000000191668010000000000000000958316860217905560608501519282018054608087015160a088015173ffffffffffffffffffffffffffffffffffffffff19909216600160a060020a03909616959095177bffffffffffffffff0000000000000000000000000000000000000000191660a060020a95841695909502949094177bffffffffffffffffffffffffffffffffffffffffffffffffffffffff1660e060020a63ffffffff9586160217905560c08501516003909201805460e08701516101008801516101209098015163ffffffff199092169486169490941767ffffffff00000000191664010000000094861694909402939093176bffffffff00000000000000001916959093169093029390931773ffffffffffffffff00000000000000000000000019166c0100000000000000000000000093909216929092021790555091949350505050565b600160a060020a038216600090815260036020526040902080546001604060020a03161515610e265760408051602080820183526000808352600160a060020a03871681526003909152919091209051815467ffffffffffffffff19166001604060020a039091161790555b80546001604060020a038082166001908101821667ffffffffffffffff1993841617845593166000818152939092016020526040909220805490921617905550565b600160a060020a0383161515610e7d57600080fd5b600160a060020a0382161515610e9257600080fd5b610e9c8382611bcc565b610ea68282610dba565b6001604060020a0316600090815260026020819052604090912001805473ffffffffffffffffffffffffffffffffffffffff1916600160a060020a039290921691909117905550565b600080610efa6120a0565b610f026120a0565b600080600080600260008b6001604060020a03166001604060020a0316815260200190815260200160002061014060405190810160405290816000820154600019166000191681526020016001820160009054906101000a90046001604060020a03166001604060020a03166001604060020a031681526020016001820160089054906101000a90046001604060020a03166001604060020a03166001604060020a031681526020016002820160009054906101000a9004600160a060020a0316600160a060020a0316600160a060020a031681526020016002820160149054906101000a90046001604060020a03166001604060020a03166001604060020a0316815260200160028201601c9054906101000a900463ffffffff1663ffffffff1663ffffffff1681526020016003820160009054906101000a900463ffffffff1663ffffffff1663ffffffff1681526020016003820160049054906101000a900463ffffffff1663ffffffff1663ffffffff1681526020016003820160089054906101000a900463ffffffff1663ffffffff1663ffffffff16815260200160038201600c9054906101000a90046001604060020a03166001604060020a03166001604060020a0316815250509550600260008a6001604060020a03166001604060020a0316815260200190815260200160002061014060405190810160405290816000820154600019166000191681526020016001820160009054906101000a90046001604060020a03166001604060020a03166001604060020a031681526020016001820160089054906101000a90046001604060020a03166001604060020a03166001604060020a031681526020016002820160009054906101000a9004600160a060020a0316600160a060020a0316600160a060020a031681526020016002820160149054906101000a90046001604060020a03166001604060020a03166001604060020a0316815260200160028201601c9054906101000a900463ffffffff1663ffffffff1663ffffffff1681526020016003820160009054906101000a900463ffffffff1663ffffffff1663ffffffff1681526020016003820160049054906101000a900463ffffffff1663ffffffff1663ffffffff1681526020016003820160089054906101000a900463ffffffff1663ffffffff1663ffffffff16815260200160038201600c9054906101000a90046001604060020a03166001604060020a03166001604060020a03168152505094508460e0015163ffffffff168660e00151600a0263ffffffff168115156112bc57fe5b0463ffffffff1685608001516001604060020a03168760800151600a026001604060020a03168115156112eb57fe5b048660c0015163ffffffff168860c00151600a0260020263ffffffff1681151561131157fe5b0463ffffffff16010193508560e0015163ffffffff168560e00151600a0263ffffffff1681151561133e57fe5b0463ffffffff1686608001516001604060020a03168660800151600a026001604060020a031681151561136d57fe5b048760c0015163ffffffff168760c00151600a0260020263ffffffff1681151561139357fe5b0463ffffffff160101925042915081600160405180836001604060020a03166001604060020a031660c060020a0281526008018280546001816001161561010002031660029004801561141d5780601f106113fb57610100808354040283529182019161141d565b820191906000526020600020905b815481529060010190602001808311611409575b5050604051908190039020935061143b925083915060009050610beb565b60640160ff169390930292611451816001610beb565b60640160ff16830292508383975097505050505050509250929050565b600080600061147b6120a0565b6114836120a0565b600080600260008b6001604060020a03166001604060020a0316815260200190815260200160002061014060405190810160405290816000820154600019166000191681526020016001820160009054906101000a90046001604060020a03166001604060020a03166001604060020a031681526020016001820160089054906101000a90046001604060020a03166001604060020a03166001604060020a031681526020016002820160009054906101000a9004600160a060020a0316600160a060020a0316600160a060020a031681526020016002820160149054906101000a90046001604060020a03166001604060020a03166001604060020a0316815260200160028201601c9054906101000a900463ffffffff1663ffffffff1663ffffffff1681526020016003820160009054906101000a900463ffffffff1663ffffffff1663ffffffff1681526020016003820160049054906101000a900463ffffffff1663ffffffff1663ffffffff1681526020016003820160089054906101000a900463ffffffff1663ffffffff1663ffffffff16815260200160038201600c9054906101000a90046001604060020a03166001604060020a03166001604060020a0316815250509350600260008a6001604060020a03166001604060020a0316815260200190815260200160002061014060405190810160405290816000820154600019166000191681526020016001820160009054906101000a90046001604060020a03166001604060020a03166001604060020a031681526020016001820160089054906101000a90046001604060020a03166001604060020a03166001604060020a031681526020016002820160009054906101000a9004600160a060020a0316600160a060020a0316600160a060020a031681526020016002820160149054906101000a90046001604060020a03166001604060020a03166001604060020a0316815260200160028201601c9054906101000a900463ffffffff1663ffffffff1663ffffffff1681526020016003820160009054906101000a900463ffffffff1663ffffffff1663ffffffff1681526020016003820160049054906101000a900463ffffffff1663ffffffff1663ffffffff1681526020016003820160089054906101000a900463ffffffff1663ffffffff1663ffffffff16815260200160038201600c9054906101000a90046001604060020a03166001604060020a03166001604060020a03168152505092506000915082610100015184610100015103905060008160030b12151561191857600a8160030b13156118a6578715611870576118558a600a611c4e565b61186089600a611c4e565b600a9650869550600094506119cc565b61187b8a600a611c4e565b61188689601e611c4e565b6118948a8a60056064611d8a565b600a9750601e965094508491506119cc565b87156118e2576118b78a6014611c4e565b6118c289600a611c4e565b6118d0898b60036064611d8a565b60149750600a965094508491506119cc565b6118ed8a600a611c4e565b6118f8896014611c4e565b6119068a8a60036064611d8a565b600a97506014965094508491506119cc565b6009198160030b1315611985578715611961576119368a601e611c4e565b61194189600a611c4e565b61194f898b60056064611d8a565b601e9750600a965094508491506119cc565b61196c8a600a611c4e565b61197789601e611c4e565b6118948a8a60036064611d8a565b87156119c1576119968a6032611c4e565b6119a189600a611c4e565b6119af898b60056064611d8a565b60329750600a965094508491506119cc565b6118558a600a611c4e565b5050505093509350939050565b600060018260ff16101580156119f3575060038260ff1611155b15156119fe57600080fd5b506001604060020a0382166000908152600260205260409020600160ff83161415611a3557611a308360696064611ebf565b611a59565b8160ff1660021415611a4e57611a308360696064611f58565b611a59836032611c4e565b600301805473ffffffffffffffff00000000000000000000000019166c01000000000000000000000000426001604060020a0316021790555050565b6000805460016001604060020a037501000000000000000000000000000000000000000000808404821683018083169182027fffffff0000000000000000ffffffffffffffffffffffffffffffffffffffffff90951694909417855560405160c060020a928716830281529102600882015281548493928492879285929190601082019083906002600019828416156101000201909116048015611b705780601f10611b4e576101008083540402835291820191611b70565b820191906000526020600020905b815481529060010190602001808311611b5c575b50506040519081900390209599959850949650505050505050565b600060f860020a7f0f00000000000000000000000000000000000000000000000000000000000000831604600560ff82161015611bc6576005015b92915050565b600160a060020a0390911660009081526003602090815260408083206001604060020a039485168452600181018352818420805467ffffffffffffffff1990811690915560029384905291909320909101805473ffffffffffffffffffffffffffffffffffffffff191690558154600019818516019093169216919091179055565b6001604060020a03821660009081526002602081905260408220908101805463ffffffff60e060020a808304821687018216027bffffffffffffffffffffffffffffffffffffffffffffffffffffffff9092169190911790915560038201549192918291611cc8916801000000000000000090041661201f565b6002850154919350915061ffff821660e060020a90910463ffffffff9081168490031610611d835760038301805463ffffffff680100000000000000008083048216600101909116026bffffffff000000000000000019909116179055611d328560676064611ebf565b611d3f8560676064611f58565b6002830180546001604060020a0360a060020a8083048216606401909116027bffffffffffffffff0000000000000000000000000000000000000000199091161790555b5050505050565b6001604060020a03808516600090815260026020819052604080832087851684529083209181015492939092849160a060020a909104161515611dd05760009350611eb4565b8460ff168660ff168460020160149054906101000a90046001604060020a0316026001604060020a0316811515611e0357fe5b0490506001604060020a0381161515611e1a575060015b60028301546001604060020a0360a060020a90910481169082161115611e515750600282015460a060020a90046001604060020a03165b600280840180546001604060020a0360a060020a8083048216869003821681027bffffffffffffffff0000000000000000000000000000000000000000199384161790935592850180548381048516860190941690920292169190911790559250825b505050949350505050565b6001604060020a0383166000908152600260205260408120600381015490919060ff8481169190861663ffffffff9182160216811515611efb57fe5b6003840154919004915063ffffffff80831691161415611f385760038201805463ffffffff8082166001011663ffffffff19909116179055611d83565b60038201805463ffffffff831663ffffffff199091161790555050505050565b6001604060020a0383166000908152600260205260408120600381015490919060ff8085169163ffffffff64010000000090910481169187169190910216811515611f9f57fe5b6003840154919004915063ffffffff808316640100000000909204161415611ff457600382018054600163ffffffff640100000000808404821692909201160267ffffffff0000000019909116179055611d83565b60038201805463ffffffff83166401000000000267ffffffff00000000199091161790555050505050565b600080601e8363ffffffff16101561206357600a8363ffffffff16101561204d57505060328082029061209b565b5050600919810160649081026101f4019061209b565b60508363ffffffff161015612088575050601d19810160c89081026109c4019061209b565b5050604f19810161012c9081026130d401905b915091565b6040805161014081018252600080825260208201819052918101829052606081018290526080810182905260a0810182905260c0810182905260e081018290526101008101829052610120810191909152905600a165627a7a72305820a93b198de14876092f532bf75e60c1223ac510098aa5142d5af524059fca4db10029",
    "sourcePath": "e:/workspace/go/src/shikenian/solidity/chapter1/test.sol",
    "compiler": {
        "name": "solc",
        "version": "0.4.25+commit.59dbf8f1"
    },
    "functionHashes": {
        "catchBird()": "34b984c6",
        "feedFruit(uint64,uint8,bytes32)": "f7c2ac89",
        "getBirdInfo(uint64)": "2f4cfcd0",
        "pause()": "8456cb59",
        "paused()": "5c975abb",
        "pk(uint64,uint64,bytes32)": "ed7822b6",
        "totalBirds()": "55d396e0",
        "trade(uint64,uint256,uint256,bytes32)": "d7b42d77",
        "unpause()": "3f4ba83a"
    },
    "gasEstimates": {
        "creation": {
            "codeDepositCost": "1696000",
            "executionCost": "infinite",
            "totalCost": "infinite"
        },
        "external": {
            "catchBird()": "infinite",
            "feedFruit(uint64,uint8,bytes32)": "infinite",
            "getBirdInfo(uint64)": "3245",
            "pause()": "20887",
            "paused()": "621",
            "pk(uint64,uint64,bytes32)": "infinite",
            "totalBirds()": "677",
            "trade(uint64,uint256,uint256,bytes32)": "infinite",
            "unpause()": "20752"
        },
        "internal": {
            "_addExp(uint64,uint32)": "infinite",
            "_addPower(uint64,uint8,uint8)": "20985",
            "_addSpeed(uint64,uint8,uint8)": "21041",
            "_createBird(address)": "infinite",
            "_eatFruit(uint64,uint8)": "infinite",
            "_generateGenes(uint64)": "infinite",
            "_getBaseLevelExp(uint32)": "137",
            "_getBirdAttack(uint64,uint64)": "infinite",
            "_getNumber(bytes1)": "140",
            "_lossBird(address,uint64)": "61089",
            "_ownBird(address,uint64)": "infinite",
            "_ownershipTransfer(address,address,uint64)": "infinite",
            "_reward(uint64,uint64,bool)": "infinite",
            "_transferWeight(uint64,uint64,uint8,uint8)": "42637"
        }
    }
}